{
  "_format": "hh-sol-artifact-1",
  "contractName": "HashedTimelock",
  "sourceName": "contracts/HashedTimelock.sol",
  "abi": [
    {
      "anonymous": false,
      "inputs": [
        {
          "indexed": true,
          "internalType": "bytes32",
          "name": "htlcId",
          "type": "bytes32"
        },
        {
          "indexed": true,
          "internalType": "address",
          "name": "sender",
          "type": "address"
        },
        {
          "indexed": true,
          "internalType": "address",
          "name": "receiver",
          "type": "address"
        },
        {
          "indexed": false,
          "internalType": "uint256",
          "name": "amount",
          "type": "uint256"
        },
        {
          "indexed": false,
          "internalType": "bytes32",
          "name": "hashlock",
          "type": "bytes32"
        },
        {
          "indexed": false,
          "internalType": "uint256",
          "name": "timelock",
          "type": "uint256"
        }
      ],
      "name": "LogHTLCNew",
      "type": "event"
    },
    {
      "anonymous": false,
      "inputs": [
        {
          "indexed": true,
          "internalType": "bytes32",
          "name": "htlcId",
          "type": "bytes32"
        }
      ],
      "name": "LogHTLCRefund",
      "type": "event"
    },
    {
      "anonymous": false,
      "inputs": [
        {
          "indexed": true,
          "internalType": "bytes32",
          "name": "htlcId",
          "type": "bytes32"
        }
      ],
      "name": "LogHTLCWithdraw",
      "type": "event"
    },
    {
      "inputs": [
        {
          "internalType": "bytes32",
          "name": "_htlcId",
          "type": "bytes32"
        }
      ],
      "name": "getContract",
      "outputs": [
        {
          "internalType": "address",
          "name": "sender",
          "type": "address"
        },
        {
          "internalType": "address",
          "name": "receiver",
          "type": "address"
        },
        {
          "internalType": "uint256",
          "name": "amount",
          "type": "uint256"
        },
        {
          "internalType": "bytes32",
          "name": "hashlock",
          "type": "bytes32"
        },
        {
          "internalType": "uint256",
          "name": "timelock",
          "type": "uint256"
        },
        {
          "internalType": "bool",
          "name": "withdrawn",
          "type": "bool"
        },
        {
          "internalType": "bool",
          "name": "refunded",
          "type": "bool"
        },
        {
          "internalType": "bytes",
          "name": "preimage",
          "type": "bytes"
        }
      ],
      "stateMutability": "view",
      "type": "function"
    },
    {
      "inputs": [
        {
          "internalType": "address payable",
          "name": "_receiver",
          "type": "address"
        },
        {
          "internalType": "bytes32",
          "name": "_hashlock",
          "type": "bytes32"
        },
        {
          "internalType": "uint256",
          "name": "_timelock",
          "type": "uint256"
        }
      ],
      "name": "newHTLC",
      "outputs": [
        {
          "internalType": "bytes32",
          "name": "htlcId",
          "type": "bytes32"
        }
      ],
      "stateMutability": "payable",
      "type": "function"
    },
    {
      "inputs": [
        {
          "internalType": "address payable",
          "name": "_receiver",
          "type": "address"
        },
        {
          "internalType": "bytes32",
          "name": "_hashlock",
          "type": "bytes32"
        },
        {
          "internalType": "uint256",
          "name": "_timelock",
          "type": "uint256"
        },
        {
          "internalType": "address",
          "name": "_token",
          "type": "address"
        },
        {
          "internalType": "uint256",
          "name": "_amount",
          "type": "uint256"
        }
      ],
      "name": "newHTLCERC20",
      "outputs": [
        {
          "internalType": "bytes32",
          "name": "htlcId",
          "type": "bytes32"
        }
      ],
      "stateMutability": "nonpayable",
      "type": "function"
    },
    {
      "inputs": [
        {
          "internalType": "address payable",
          "name": "_receiver",
          "type": "address"
        },
        {
          "internalType": "bytes32",
          "name": "_hashlock",
          "type": "bytes32"
        },
        {
          "internalType": "uint256",
          "name": "_timelock",
          "type": "uint256"
        },
        {
          "internalType": "address",
          "name": "_token",
          "type": "address"
        },
        {
          "internalType": "uint256",
          "name": "_tokenId",
          "type": "uint256"
        }
      ],
      "name": "newHTLCNFT",
      "outputs": [
        {
          "internalType": "bytes32",
          "name": "htlcId",
          "type": "bytes32"
        }
      ],
      "stateMutability": "nonpayable",
      "type": "function"
    },
    {
      "inputs": [
        {
          "internalType": "bytes32",
          "name": "_htlcId",
          "type": "bytes32"
        }
      ],
      "name": "refund",
      "outputs": [
        {
          "internalType": "bool",
          "name": "",
          "type": "bool"
        }
      ],
      "stateMutability": "nonpayable",
      "type": "function"
    },
    {
      "inputs": [
        {
          "internalType": "bytes32",
          "name": "_htlcId",
          "type": "bytes32"
        }
      ],
      "name": "refundERC20",
      "outputs": [
        {
          "internalType": "bool",
          "name": "",
          "type": "bool"
        }
      ],
      "stateMutability": "nonpayable",
      "type": "function"
    },
    {
      "inputs": [
        {
          "internalType": "bytes32",
          "name": "_htlcId",
          "type": "bytes32"
        }
      ],
      "name": "refundNFT",
      "outputs": [
        {
          "internalType": "bool",
          "name": "",
          "type": "bool"
        }
      ],
      "stateMutability": "nonpayable",
      "type": "function"
    },
    {
      "inputs": [
        {
          "internalType": "bytes32",
          "name": "_htlcId",
          "type": "bytes32"
        },
        {
          "internalType": "bytes",
          "name": "_preimage",
          "type": "bytes"
        }
      ],
      "name": "withdraw",
      "outputs": [
        {
          "internalType": "bool",
          "name": "",
          "type": "bool"
        }
      ],
      "stateMutability": "nonpayable",
      "type": "function"
    },
    {
      "inputs": [
        {
          "internalType": "bytes32",
          "name": "_htlcId",
          "type": "bytes32"
        },
        {
          "internalType": "bytes",
          "name": "_preimage",
          "type": "bytes"
        }
      ],
      "name": "withdrawERC20",
      "outputs": [
        {
          "internalType": "bool",
          "name": "",
          "type": "bool"
        }
      ],
      "stateMutability": "nonpayable",
      "type": "function"
    },
    {
      "inputs": [
        {
          "internalType": "bytes32",
          "name": "_htlcId",
          "type": "bytes32"
        },
        {
          "internalType": "bytes",
          "name": "_preimage",
          "type": "bytes"
        }
      ],
      "name": "withdrawNFT",
      "outputs": [
        {
          "internalType": "bool",
          "name": "",
          "type": "bool"
        }
      ],
      "stateMutability": "nonpayable",
      "type": "function"
    }
  ],
  "bytecode": "0x608060405234801561001057600080fd5b50612509806100206000396000f3fe6080604052600436106100b15760003560e01c80637b3a406d11610069578063d95edc3b1161004e578063d95edc3b146101ac578063e16c7d98146101cc578063e79f8d671461020057600080fd5b80637b3a406d14610179578063aa2c1ca11461018c57600080fd5b80634a2e35ba1161009a5780634a2e35ba146101195780636e63718e146101395780637249fbb61461015957600080fd5b8063092ac3d0146100b657806344dee18a146100e9575b600080fd5b3480156100c257600080fd5b506100d66100d136600461225c565b610220565b6040519081526020015b60405180910390f35b3480156100f557600080fd5b506101096101043660046122ae565b61061d565b60405190151581526020016100e0565b34801561012557600080fd5b506101096101343660046122c7565b6108f5565b34801561014557600080fd5b506101096101543660046122ae565b610c46565b34801561016557600080fd5b506101096101743660046122ae565b610f15565b6100d6610187366004612343565b6111a5565b34801561019857600080fd5b506100d66101a736600461225c565b61156f565b3480156101b857600080fd5b506101096101c73660046122c7565b6118b1565b3480156101d857600080fd5b506101ec6101e73660046122ae565b611c3d565b6040516100e09897969594939291906123a8565b34801561020c57600080fd5b5061010961021b3660046122c7565b611d9f565b6000834281116102835760405162461bcd60e51b815260206004820152602360248201527f74696d656c6f636b2074696d65206d75737420626520696e207468652066757460448201526275726560e81b60648201526084015b60405180910390fd5b6040516323b872dd60e01b81523360048201523060248201526044810184905284906001600160a01b038216906323b872dd906064016020604051808303816000875af11580156102d8573d6000803e3d6000fd5b505050506040513d601f19601f820116820180604052508101906102fc9190612422565b506040516bffffffffffffffffffffffff1933606090811b821660208401528a901b16603482015260488101859052606881018890526088810187905260029060a80160408051601f19818403018152908290526103599161244b565b602060405180830381855afa158015610376573d6000803e3d6000fd5b5050506040513d601f19601f820116820180604052508101906103999190612467565b6000818152602081905260409020549093506001600160a01b0316156104015760405162461bcd60e51b815260206004820152601760248201527f436f6e747261637420616c726561647920657869737473000000000000000000604482015260640161027a565b6000339050604051806101400160405280826001600160a01b031681526020018a6001600160a01b031681526020018681526020018981526020018881526020016000151581526020016000151581526020016040518060400160405280600381526020016203078360ec1b8152508152602001876001600160a01b0316815260200160006001600160a01b031681525060008086815260200190815260200160002060008201518160000160006101000a8154816001600160a01b0302191690836001600160a01b0316021790555060208201518160010160006101000a8154816001600160a01b0302191690836001600160a01b0316021790555060408201518160020155606082015181600301556080820151816004015560a08201518160050160006101000a81548160ff02191690831515021790555060c08201518160050160016101000a81548160ff02191690831515021790555060e0820151816006019080519060200190610578929190612137565b5061010082015160078201805473ffffffffffffffffffffffffffffffffffffffff199081166001600160a01b039384161790915561012090930151600890920180549093169181169190911790915560408051878152602081018b9052908101899052908a1690339086907f329a8316ed9c3b2299597538371c2944c5026574e803b1ec31d6113e1cd67bde9060600160405180910390a450505095945050505050565b60008181526020819052604081205482906001600160a01b031661067b5760405162461bcd60e51b81526020600482015260156024820152741a1d1b18d25908191bd95cc81b9bdd08195e1a5cdd605a1b604482015260640161027a565b60008381526020819052604090205483906001600160a01b031633146106e35760405162461bcd60e51b815260206004820152601660248201527f726566756e6461626c653a206e6f742073656e64657200000000000000000000604482015260640161027a565b600081815260208190526040902060050154610100900460ff161561074a5760405162461bcd60e51b815260206004820152601c60248201527f726566756e6461626c653a20616c726561647920726566756e64656400000000604482015260640161027a565b60008181526020819052604090206005015460ff16156107ac5760405162461bcd60e51b815260206004820152601d60248201527f726566756e6461626c653a20616c72656164792077697468647261776e000000604482015260640161027a565b6000818152602081905260409020600401544210156108195760405162461bcd60e51b815260206004820152602360248201527f726566756e6461626c653a2074696d656c6f636b206e6f7420796574207061736044820152621cd95960ea1b606482015260840161027a565b6000848152602081905260409081902060058101805461ff001916610100179055600781015481546002830154935163a9059cbb60e01b81526001600160a01b03918216600482015260248101949094529192911690819063a9059cbb906044016020604051808303816000875af1158015610899573d6000803e3d6000fd5b505050506040513d601f19601f820116820180604052508101906108bd9190612422565b5060405186907f989b3a845197c9aec15f8982bbb30b5da714050e662a7a287bb1a94c81e2e70e90600090a250600195945050505050565b60008381526020819052604081205484906001600160a01b03166109535760405162461bcd60e51b81526020600482015260156024820152741a1d1b18d25908191bd95cc81b9bdd08195e1a5cdd605a1b604482015260640161027a565b8484848080601f016020809104026020016040519081016040528093929190818152602001838380828437600092019190915250506040516002925061099e9150839060200161244b565b60408051601f19818403018152908290526109b89161244b565b602060405180830381855afa1580156109d5573d6000803e3d6000fd5b5050506040513d601f19601f820116820180604052508101906109f89190612467565b60008381526020819052604090206003015414610a575760405162461bcd60e51b815260206004820152601c60248201527f686173686c6f636b206861736820646f6573206e6f74206d6174636800000000604482015260640161027a565b60008781526020819052604090206001015487906001600160a01b03163314610ac25760405162461bcd60e51b815260206004820152601a60248201527f776974686472617761626c653a206e6f74207265636569766572000000000000604482015260640161027a565b60008181526020819052604090206005015460ff1615610b245760405162461bcd60e51b815260206004820152601f60248201527f776974686472617761626c653a20616c72656164792077697468647261776e00604482015260640161027a565b6000818152602081905260409020600401544210610b9e5760405162461bcd60e51b815260206004820152603160248201527f776974686472617761626c653a2074696d656c6f636b2074696d65206d75737460448201527020626520696e207468652066757475726560781b606482015260840161027a565b6000888152602081905260409020610bba6006820189896121bb565b5060058101805460ff1916600190811790915581015460028201546040516001600160a01b039092169181156108fc0291906000818181858888f19350505050158015610c0b573d6000803e3d6000fd5b5060405189907fd6fd4c8e45bf0c70693141c7ce46451b6a6a28ac8386fca2ba914044e0e2391690600090a250600198975050505050505050565b60008181526020819052604081205482906001600160a01b0316610ca45760405162461bcd60e51b81526020600482015260156024820152741a1d1b18d25908191bd95cc81b9bdd08195e1a5cdd605a1b604482015260640161027a565b60008381526020819052604090205483906001600160a01b03163314610d0c5760405162461bcd60e51b815260206004820152601660248201527f726566756e6461626c653a206e6f742073656e64657200000000000000000000604482015260640161027a565b600081815260208190526040902060050154610100900460ff1615610d735760405162461bcd60e51b815260206004820152601c60248201527f726566756e6461626c653a20616c726561647920726566756e64656400000000604482015260640161027a565b60008181526020819052604090206005015460ff1615610dd55760405162461bcd60e51b815260206004820152601d60248201527f726566756e6461626c653a20616c72656164792077697468647261776e000000604482015260640161027a565b600081815260208190526040902060040154421015610e425760405162461bcd60e51b815260206004820152602360248201527f726566756e6461626c653a2074696d656c6f636b206e6f7420796574207061736044820152621cd95960ea1b606482015260840161027a565b6000848152602081905260409081902060058101805461ff0019166101001790556008810154600182015460028301549351632142170760e11b81523060048201526001600160a01b0391821660248201526044810194909452919291169081906342842e0e90606401600060405180830381600087803b158015610ec657600080fd5b505af1158015610eda573d6000803e3d6000fd5b50506040518892507f989b3a845197c9aec15f8982bbb30b5da714050e662a7a287bb1a94c81e2e70e9150600090a250600195945050505050565b60008181526020819052604081205482906001600160a01b0316610f735760405162461bcd60e51b81526020600482015260156024820152741a1d1b18d25908191bd95cc81b9bdd08195e1a5cdd605a1b604482015260640161027a565b60008381526020819052604090205483906001600160a01b03163314610fdb5760405162461bcd60e51b815260206004820152601660248201527f726566756e6461626c653a206e6f742073656e64657200000000000000000000604482015260640161027a565b600081815260208190526040902060050154610100900460ff16156110425760405162461bcd60e51b815260206004820152601c60248201527f726566756e6461626c653a20616c726561647920726566756e64656400000000604482015260640161027a565b60008181526020819052604090206005015460ff16156110a45760405162461bcd60e51b815260206004820152601d60248201527f726566756e6461626c653a20616c72656164792077697468647261776e000000604482015260640161027a565b6000818152602081905260409020600401544210156111115760405162461bcd60e51b815260206004820152602360248201527f726566756e6461626c653a2074696d656c6f636b206e6f7420796574207061736044820152621cd95960ea1b606482015260840161027a565b60008481526020819052604080822060058101805461ff00191661010017905580546002820154925191936001600160a01b039091169280156108fc02929091818181858888f1935050505015801561116e573d6000803e3d6000fd5b5060405185907f989b3a845197c9aec15f8982bbb30b5da714050e662a7a287bb1a94c81e2e70e90600090a2506001949350505050565b60008034116111f65760405162461bcd60e51b815260206004820152601560248201527f6d73672e76616c7565206d757374206265203e20300000000000000000000000604482015260640161027a565b814281116112525760405162461bcd60e51b815260206004820152602360248201527f74696d656c6f636b2074696d65206d75737420626520696e207468652066757460448201526275726560e81b606482015260840161027a565b6040516bffffffffffffffffffffffff1933606090811b8216602084015287901b166034820152346048820152606881018590526088810184905260029060a80160408051601f19818403018152908290526112ad9161244b565b602060405180830381855afa1580156112ca573d6000803e3d6000fd5b5050506040513d601f19601f820116820180604052508101906112ed9190612467565b6000818152602081905260409020549092506001600160a01b0316156113555760405162461bcd60e51b815260206004820152601760248201527f436f6e747261637420616c726561647920657869737473000000000000000000604482015260640161027a565b6000339050604051806101400160405280826001600160a01b03168152602001876001600160a01b031681526020013481526020018681526020018581526020016000151581526020016000151581526020016040518060400160405280600381526020016203078360ec1b815250815260200160006001600160a01b0316815260200160006001600160a01b031681525060008085815260200190815260200160002060008201518160000160006101000a8154816001600160a01b0302191690836001600160a01b0316021790555060208201518160010160006101000a8154816001600160a01b0302191690836001600160a01b0316021790555060408201518160020155606082015181600301556080820151816004015560a08201518160050160006101000a81548160ff02191690831515021790555060c08201518160050160016101000a81548160ff02191690831515021790555060e08201518160060190805190602001906114cd929190612137565b5061010082015160078201805473ffffffffffffffffffffffffffffffffffffffff199081166001600160a01b0393841617909155610120909301516008909201805490931691811691909117909155604080513481526020810188905290810186905290871690339085907f329a8316ed9c3b2299597538371c2944c5026574e803b1ec31d6113e1cd67bde9060600160405180910390a450509392505050565b6000834281116115cd5760405162461bcd60e51b815260206004820152602360248201527f74696d656c6f636b2074696d65206d75737420626520696e207468652066757460448201526275726560e81b606482015260840161027a565b6040516323b872dd60e01b81523360048201523060248201526044810184905284906001600160a01b038216906323b872dd90606401600060405180830381600087803b15801561161d57600080fd5b505af1158015611631573d6000803e3d6000fd5b50506040516bffffffffffffffffffffffff1933606090811b821660208401528c901b16603482015260488101879052606881018a9052608881018990526002925060a801905060408051601f19818403018152908290526116929161244b565b602060405180830381855afa1580156116af573d6000803e3d6000fd5b5050506040513d601f19601f820116820180604052508101906116d29190612467565b6000818152602081905260409020549093506001600160a01b03161561173a5760405162461bcd60e51b815260206004820152601760248201527f436f6e747261637420616c726561647920657869737473000000000000000000604482015260640161027a565b6000339050604051806101400160405280826001600160a01b031681526020018a6001600160a01b031681526020018681526020018981526020018881526020016000151581526020016000151581526020016040518060400160405280600381526020016203078360ec1b815250815260200160006001600160a01b03168152602001876001600160a01b031681525060008086815260200190815260200160002060008201518160000160006101000a8154816001600160a01b0302191690836001600160a01b0316021790555060208201518160010160006101000a8154816001600160a01b0302191690836001600160a01b0316021790555060408201518160020155606082015181600301556080820151816004015560a08201518160050160006101000a81548160ff02191690831515021790555060c08201518160050160016101000a81548160ff02191690831515021790555060e0820151816006019080519060200190610578929190612137565b60008381526020819052604081205484906001600160a01b031661190f5760405162461bcd60e51b81526020600482015260156024820152741a1d1b18d25908191bd95cc81b9bdd08195e1a5cdd605a1b604482015260640161027a565b8484848080601f016020809104026020016040519081016040528093929190818152602001838380828437600092019190915250506040516002925061195a9150839060200161244b565b60408051601f19818403018152908290526119749161244b565b602060405180830381855afa158015611991573d6000803e3d6000fd5b5050506040513d601f19601f820116820180604052508101906119b49190612467565b60008381526020819052604090206003015414611a135760405162461bcd60e51b815260206004820152601c60248201527f686173686c6f636b206861736820646f6573206e6f74206d6174636800000000604482015260640161027a565b60008781526020819052604090206001015487906001600160a01b03163314611a7e5760405162461bcd60e51b815260206004820152601a60248201527f776974686472617761626c653a206e6f74207265636569766572000000000000604482015260640161027a565b60008181526020819052604090206005015460ff1615611ae05760405162461bcd60e51b815260206004820152601f60248201527f776974686472617761626c653a20616c72656164792077697468647261776e00604482015260640161027a565b6000818152602081905260409020600401544210611b5a5760405162461bcd60e51b815260206004820152603160248201527f776974686472617761626c653a2074696d656c6f636b2074696d65206d75737460448201527020626520696e207468652066757475726560781b606482015260840161027a565b6000888152602081905260409020611b766006820189896121bb565b5060058101805460ff191660019081179091556008820154908201546002830154604051632142170760e11b81523060048201526001600160a01b039283166024820152604481019190915291169081906342842e0e90606401600060405180830381600087803b158015611bea57600080fd5b505af1158015611bfe573d6000803e3d6000fd5b50506040518c92507fd6fd4c8e45bf0c70693141c7ce46451b6a6a28ac8386fca2ba914044e0e239169150600090a25060019998505050505050505050565b60008060008060008060006060611c6b896000908152602081905260409020546001600160a01b0316151590565b1515600003611caa57505060408051808201909152600381526203078360ec1b6020820152600096508695508594508493508392508291508190611d94565b60008981526020819052604090208054600182015460028301546003840154600485015460058601546006870180546001600160a01b03978816979096169560ff8084169361010090041691908190611d0290612480565b80601f0160208091040260200160405190810160405280929190818152602001828054611d2e90612480565b8015611d7b5780601f10611d5057610100808354040283529160200191611d7b565b820191906000526020600020905b815481529060010190602001808311611d5e57829003601f168201915b5050505050905098509850985098509850985098509850505b919395975091939597565b60008381526020819052604081205484906001600160a01b0316611dfd5760405162461bcd60e51b81526020600482015260156024820152741a1d1b18d25908191bd95cc81b9bdd08195e1a5cdd605a1b604482015260640161027a565b8484848080601f0160208091040260200160405190810160405280939291908181526020018383808284376000920191909152505060405160029250611e489150839060200161244b565b60408051601f1981840301815290829052611e629161244b565b602060405180830381855afa158015611e7f573d6000803e3d6000fd5b5050506040513d601f19601f82011682018060405250810190611ea29190612467565b60008381526020819052604090206003015414611f015760405162461bcd60e51b815260206004820152601c60248201527f686173686c6f636b206861736820646f6573206e6f74206d6174636800000000604482015260640161027a565b60008781526020819052604090206001015487906001600160a01b03163314611f6c5760405162461bcd60e51b815260206004820152601a60248201527f776974686472617761626c653a206e6f74207265636569766572000000000000604482015260640161027a565b60008181526020819052604090206005015460ff1615611fce5760405162461bcd60e51b815260206004820152601f60248201527f776974686472617761626c653a20616c72656164792077697468647261776e00604482015260640161027a565b60008181526020819052604090206004015442106120485760405162461bcd60e51b815260206004820152603160248201527f776974686472617761626c653a2074696d656c6f636b2074696d65206d75737460448201527020626520696e207468652066757475726560781b606482015260840161027a565b60008881526020819052604090206120646006820189896121bb565b5060058101805460ff19166001908117909155600782015490820154600283015460405163a9059cbb60e01b81526001600160a01b0392831660048201526024810191909152911690819063a9059cbb906044016020604051808303816000875af11580156120d7573d6000803e3d6000fd5b505050506040513d601f19601f820116820180604052508101906120fb9190612422565b506040518a907fd6fd4c8e45bf0c70693141c7ce46451b6a6a28ac8386fca2ba914044e0e2391690600090a25060019998505050505050505050565b82805461214390612480565b90600052602060002090601f01602090048101928261216557600085556121ab565b82601f1061217e57805160ff19168380011785556121ab565b828001600101855582156121ab579182015b828111156121ab578251825591602001919060010190612190565b506121b792915061222f565b5090565b8280546121c790612480565b90600052602060002090601f0160209004810192826121e957600085556121ab565b82601f106122025782800160ff198235161785556121ab565b828001600101855582156121ab579182015b828111156121ab578235825591602001919060010190612214565b5b808211156121b75760008155600101612230565b6001600160a01b038116811461225957600080fd5b50565b600080600080600060a0868803121561227457600080fd5b853561227f81612244565b94506020860135935060408601359250606086013561229d81612244565b949793965091946080013592915050565b6000602082840312156122c057600080fd5b5035919050565b6000806000604084860312156122dc57600080fd5b83359250602084013567ffffffffffffffff808211156122fb57600080fd5b818601915086601f83011261230f57600080fd5b81358181111561231e57600080fd5b87602082850101111561233057600080fd5b6020830194508093505050509250925092565b60008060006060848603121561235857600080fd5b833561236381612244565b95602085013595506040909401359392505050565b60005b8381101561239357818101518382015260200161237b565b838111156123a2576000848401525b50505050565b60006101006001600160a01b03808c168452808b1660208501525088604084015287606084015286608084015285151560a084015284151560c08401528060e08401528351808285015261012091506124078183860160208801612378565b601f01601f1916929092019091019998505050505050505050565b60006020828403121561243457600080fd5b8151801515811461244457600080fd5b9392505050565b6000825161245d818460208701612378565b9190910192915050565b60006020828403121561247957600080fd5b5051919050565b600181811c9082168061249457607f821691505b6020821081036124cd577f4e487b7100000000000000000000000000000000000000000000000000000000600052602260045260246000fd5b5091905056fea26469706673582212207e74a76728aec2c47191bc7e107236eb988be6d015b2701e49475b9d3d7b588164736f6c634300080d0033",
  "linkReferences": {},
  "deployedLinkReferences": {}
}