{
  "_format": "hh-sol-artifact-1",
  "contractName": "HashedTimelock",
  "sourceName": "contracts/HashedTimelock.sol",
  "abi": [
    {
      "anonymous": false,
      "inputs": [
        {
          "indexed": true,
          "internalType": "bytes32",
          "name": "htlcId",
          "type": "bytes32"
        },
        {
          "indexed": true,
          "internalType": "address",
          "name": "sender",
          "type": "address"
        },
        {
          "indexed": true,
          "internalType": "address",
          "name": "receiver",
          "type": "address"
        },
        {
          "indexed": false,
          "internalType": "uint256",
          "name": "amount",
          "type": "uint256"
        },
        {
          "indexed": false,
          "internalType": "bytes32",
          "name": "hashlock",
          "type": "bytes32"
        },
        {
          "indexed": false,
          "internalType": "uint256",
          "name": "timelock",
          "type": "uint256"
        }
      ],
      "name": "LogHTLCNew",
      "type": "event"
    },
    {
      "anonymous": false,
      "inputs": [
        {
          "indexed": true,
          "internalType": "bytes32",
          "name": "htlcId",
          "type": "bytes32"
        }
      ],
      "name": "LogHTLCRefund",
      "type": "event"
    },
    {
      "anonymous": false,
      "inputs": [
        {
          "indexed": true,
          "internalType": "bytes32",
          "name": "htlcId",
          "type": "bytes32"
        }
      ],
      "name": "LogHTLCWithdraw",
      "type": "event"
    },
    {
      "inputs": [
        {
          "internalType": "bytes32",
          "name": "_htlcId",
          "type": "bytes32"
        }
      ],
      "name": "getContract",
      "outputs": [
        {
          "internalType": "address",
          "name": "sender",
          "type": "address"
        },
        {
          "internalType": "address",
          "name": "receiver",
          "type": "address"
        },
        {
          "internalType": "uint256",
          "name": "amount",
          "type": "uint256"
        },
        {
          "internalType": "bytes32",
          "name": "hashlock",
          "type": "bytes32"
        },
        {
          "internalType": "uint256",
          "name": "timelock",
          "type": "uint256"
        },
        {
          "internalType": "bool",
          "name": "withdrawn",
          "type": "bool"
        },
        {
          "internalType": "bool",
          "name": "refunded",
          "type": "bool"
        },
        {
          "internalType": "bytes",
          "name": "preimage",
          "type": "bytes"
        }
      ],
      "stateMutability": "view",
      "type": "function"
    },
    {
      "inputs": [
        {
          "internalType": "address payable",
          "name": "_receiver",
          "type": "address"
        },
        {
          "internalType": "bytes32",
          "name": "_hashlock",
          "type": "bytes32"
        },
        {
          "internalType": "uint256",
          "name": "_timelock",
          "type": "uint256"
        }
      ],
      "name": "newHTLC",
      "outputs": [
        {
          "internalType": "bytes32",
          "name": "htlcId",
          "type": "bytes32"
        }
      ],
      "stateMutability": "payable",
      "type": "function"
    },
    {
      "inputs": [
        {
          "internalType": "address payable",
          "name": "_receiver",
          "type": "address"
        },
        {
          "internalType": "bytes32",
          "name": "_hashlock",
          "type": "bytes32"
        },
        {
          "internalType": "uint256",
          "name": "_timelock",
          "type": "uint256"
        },
        {
          "internalType": "address",
          "name": "_token",
          "type": "address"
        },
        {
          "internalType": "uint256",
          "name": "_amount",
          "type": "uint256"
        }
      ],
      "name": "newHTLCERC20",
      "outputs": [
        {
          "internalType": "bytes32",
          "name": "htlcId",
          "type": "bytes32"
        }
      ],
      "stateMutability": "nonpayable",
      "type": "function"
    },
    {
      "inputs": [
        {
          "internalType": "address payable",
          "name": "_receiver",
          "type": "address"
        },
        {
          "internalType": "bytes32",
          "name": "_hashlock",
          "type": "bytes32"
        },
        {
          "internalType": "uint256",
          "name": "_timelock",
          "type": "uint256"
        },
        {
          "internalType": "address",
          "name": "_token",
          "type": "address"
        },
        {
          "internalType": "uint256",
          "name": "_amount",
          "type": "uint256"
        }
      ],
      "name": "newHTLCNFT",
      "outputs": [
        {
          "internalType": "bytes32",
          "name": "htlcId",
          "type": "bytes32"
        }
      ],
      "stateMutability": "nonpayable",
      "type": "function"
    },
    {
      "inputs": [
        {
          "internalType": "bytes32",
          "name": "_htlcId",
          "type": "bytes32"
        }
      ],
      "name": "refund",
      "outputs": [
        {
          "internalType": "bool",
          "name": "",
          "type": "bool"
        }
      ],
      "stateMutability": "nonpayable",
      "type": "function"
    },
    {
      "inputs": [
        {
          "internalType": "bytes32",
          "name": "_htlcId",
          "type": "bytes32"
        },
        {
          "internalType": "address",
          "name": "_token",
          "type": "address"
        }
      ],
      "name": "refundERC20",
      "outputs": [
        {
          "internalType": "bool",
          "name": "",
          "type": "bool"
        }
      ],
      "stateMutability": "nonpayable",
      "type": "function"
    },
    {
      "inputs": [
        {
          "internalType": "bytes32",
          "name": "_htlcId",
          "type": "bytes32"
        },
        {
          "internalType": "bytes",
          "name": "_preimage",
          "type": "bytes"
        }
      ],
      "name": "withdraw",
      "outputs": [
        {
          "internalType": "bool",
          "name": "",
          "type": "bool"
        }
      ],
      "stateMutability": "nonpayable",
      "type": "function"
    },
    {
      "inputs": [
        {
          "internalType": "bytes32",
          "name": "_htlcId",
          "type": "bytes32"
        },
        {
          "internalType": "bytes",
          "name": "_preimage",
          "type": "bytes"
        },
        {
          "internalType": "address",
          "name": "_token",
          "type": "address"
        }
      ],
      "name": "withdrawERC20",
      "outputs": [
        {
          "internalType": "bool",
          "name": "",
          "type": "bool"
        }
      ],
      "stateMutability": "nonpayable",
      "type": "function"
    }
  ],
  "bytecode": "0x608060405234801561001057600080fd5b50611f43806100206000396000f3fe60806040526004361061007b5760003560e01c80637e0fcf2e1161004e5780637e0fcf2e14610116578063aa2c1ca114610136578063bc2615de14610156578063e16c7d981461017657600080fd5b8063092ac3d0146100805780634a2e35ba146100b35780637249fbb6146100e35780637b3a406d14610103575b600080fd5b34801561008c57600080fd5b506100a061009b366004611bee565b6101aa565b6040519081526020015b60405180910390f35b3480156100bf57600080fd5b506100d36100ce366004611c89565b6105c0565b60405190151581526020016100aa565b3480156100ef57600080fd5b506100d36100fe366004611cd5565b61091d565b6100a0610111366004611cee565b610bad565b34801561012257600080fd5b506100d3610131366004611d23565b610f77565b34801561014257600080fd5b506100a0610151366004611bee565b611316565b34801561016257600080fd5b506100d3610171366004611d82565b611693565b34801561018257600080fd5b50610196610191366004611cd5565b611967565b6040516100aa989796959493929190611de2565b60008342811161020d5760405162461bcd60e51b815260206004820152602360248201527f74696d656c6f636b2074696d65206d75737420626520696e207468652066757460448201526275726560e81b60648201526084015b60405180910390fd5b6040517f23b872dd0000000000000000000000000000000000000000000000000000000081523360048201523060248201526044810184905284906001600160a01b038216906323b872dd906064016020604051808303816000875af115801561027b573d6000803e3d6000fd5b505050506040513d601f19601f8201168201806040525081019061029f9190611e5c565b506040516bffffffffffffffffffffffff1933606090811b821660208401528a901b16603482015260488101859052606881018890526088810187905260029060a80160408051601f19818403018152908290526102fc91611e85565b602060405180830381855afa158015610319573d6000803e3d6000fd5b5050506040513d601f19601f8201168201806040525081019061033c9190611ea1565b6000818152602081905260409020549093506001600160a01b0316156103a45760405162461bcd60e51b815260206004820152601760248201527f436f6e747261637420616c7265616479206578697374730000000000000000006044820152606401610204565b6000339050604051806101400160405280826001600160a01b031681526020018a6001600160a01b031681526020018681526020018981526020018881526020016000151581526020016000151581526020016040518060400160405280600381526020016203078360ec1b8152508152602001876001600160a01b0316815260200160006001600160a01b031681525060008086815260200190815260200160002060008201518160000160006101000a8154816001600160a01b0302191690836001600160a01b0316021790555060208201518160010160006101000a8154816001600160a01b0302191690836001600160a01b0316021790555060408201518160020155606082015181600301556080820151816004015560a08201518160050160006101000a81548160ff02191690831515021790555060c08201518160050160016101000a81548160ff02191690831515021790555060e082015181600601908051906020019061051b929190611ac9565b5061010082015160078201805473ffffffffffffffffffffffffffffffffffffffff199081166001600160a01b039384161790915561012090930151600890920180549093169181169190911790915560408051878152602081018b9052908101899052908a1690339086907f329a8316ed9c3b2299597538371c2944c5026574e803b1ec31d6113e1cd67bde9060600160405180910390a450505095945050505050565b60008381526020819052604081205484906001600160a01b031661061e5760405162461bcd60e51b81526020600482015260156024820152741a1d1b18d25908191bd95cc81b9bdd08195e1a5cdd605a1b6044820152606401610204565b8484848080601f016020809104026020016040519081016040528093929190818152602001838380828437600092019190915250506040516002925061066991508390602001611e85565b60408051601f198184030181529082905261068391611e85565b602060405180830381855afa1580156106a0573d6000803e3d6000fd5b5050506040513d601f19601f820116820180604052508101906106c39190611ea1565b600083815260208190526040902060030154146107225760405162461bcd60e51b815260206004820152601c60248201527f686173686c6f636b206861736820646f6573206e6f74206d61746368000000006044820152606401610204565b60008781526020819052604090206001015487906001600160a01b0316331461078d5760405162461bcd60e51b815260206004820152601a60248201527f776974686472617761626c653a206e6f742072656365697665720000000000006044820152606401610204565b60008181526020819052604090206005015460ff16156107ef5760405162461bcd60e51b815260206004820152601f60248201527f776974686472617761626c653a20616c72656164792077697468647261776e006044820152606401610204565b60008181526020819052604090206004015442106108755760405162461bcd60e51b815260206004820152603160248201527f776974686472617761626c653a2074696d656c6f636b2074696d65206d75737460448201527f20626520696e20746865206675747572650000000000000000000000000000006064820152608401610204565b6000888152602081905260409020610891600682018989611b4d565b5060058101805460ff1916600190811790915581015460028201546040516001600160a01b039092169181156108fc0291906000818181858888f193505050501580156108e2573d6000803e3d6000fd5b5060405189907fd6fd4c8e45bf0c70693141c7ce46451b6a6a28ac8386fca2ba914044e0e2391690600090a250600198975050505050505050565b60008181526020819052604081205482906001600160a01b031661097b5760405162461bcd60e51b81526020600482015260156024820152741a1d1b18d25908191bd95cc81b9bdd08195e1a5cdd605a1b6044820152606401610204565b60008381526020819052604090205483906001600160a01b031633146109e35760405162461bcd60e51b815260206004820152601660248201527f726566756e6461626c653a206e6f742073656e646572000000000000000000006044820152606401610204565b600081815260208190526040902060050154610100900460ff1615610a4a5760405162461bcd60e51b815260206004820152601c60248201527f726566756e6461626c653a20616c726561647920726566756e646564000000006044820152606401610204565b60008181526020819052604090206005015460ff1615610aac5760405162461bcd60e51b815260206004820152601d60248201527f726566756e6461626c653a20616c72656164792077697468647261776e0000006044820152606401610204565b600081815260208190526040902060040154421015610b195760405162461bcd60e51b815260206004820152602360248201527f726566756e6461626c653a2074696d656c6f636b206e6f7420796574207061736044820152621cd95960ea1b6064820152608401610204565b60008481526020819052604080822060058101805461ff00191661010017905580546002820154925191936001600160a01b039091169280156108fc02929091818181858888f19350505050158015610b76573d6000803e3d6000fd5b5060405185907f989b3a845197c9aec15f8982bbb30b5da714050e662a7a287bb1a94c81e2e70e90600090a2506001949350505050565b6000803411610bfe5760405162461bcd60e51b815260206004820152601560248201527f6d73672e76616c7565206d757374206265203e203000000000000000000000006044820152606401610204565b81428111610c5a5760405162461bcd60e51b815260206004820152602360248201527f74696d656c6f636b2074696d65206d75737420626520696e207468652066757460448201526275726560e81b6064820152608401610204565b6040516bffffffffffffffffffffffff1933606090811b8216602084015287901b166034820152346048820152606881018590526088810184905260029060a80160408051601f1981840301815290829052610cb591611e85565b602060405180830381855afa158015610cd2573d6000803e3d6000fd5b5050506040513d601f19601f82011682018060405250810190610cf59190611ea1565b6000818152602081905260409020549092506001600160a01b031615610d5d5760405162461bcd60e51b815260206004820152601760248201527f436f6e747261637420616c7265616479206578697374730000000000000000006044820152606401610204565b6000339050604051806101400160405280826001600160a01b03168152602001876001600160a01b031681526020013481526020018681526020018581526020016000151581526020016000151581526020016040518060400160405280600381526020016203078360ec1b815250815260200160006001600160a01b0316815260200160006001600160a01b031681525060008085815260200190815260200160002060008201518160000160006101000a8154816001600160a01b0302191690836001600160a01b0316021790555060208201518160010160006101000a8154816001600160a01b0302191690836001600160a01b0316021790555060408201518160020155606082015181600301556080820151816004015560a08201518160050160006101000a81548160ff02191690831515021790555060c08201518160050160016101000a81548160ff02191690831515021790555060e0820151816006019080519060200190610ed5929190611ac9565b5061010082015160078201805473ffffffffffffffffffffffffffffffffffffffff199081166001600160a01b0393841617909155610120909301516008909201805490931691811691909117909155604080513481526020810188905290810186905290871690339085907f329a8316ed9c3b2299597538371c2944c5026574e803b1ec31d6113e1cd67bde9060600160405180910390a450509392505050565b60008481526020819052604081205485906001600160a01b0316610fd55760405162461bcd60e51b81526020600482015260156024820152741a1d1b18d25908191bd95cc81b9bdd08195e1a5cdd605a1b6044820152606401610204565b8585858080601f016020809104026020016040519081016040528093929190818152602001838380828437600092019190915250506040516002925061102091508390602001611e85565b60408051601f198184030181529082905261103a91611e85565b602060405180830381855afa158015611057573d6000803e3d6000fd5b5050506040513d601f19601f8201168201806040525081019061107a9190611ea1565b600083815260208190526040902060030154146110d95760405162461bcd60e51b815260206004820152601c60248201527f686173686c6f636b206861736820646f6573206e6f74206d61746368000000006044820152606401610204565b60008881526020819052604090206001015488906001600160a01b031633146111445760405162461bcd60e51b815260206004820152601a60248201527f776974686472617761626c653a206e6f742072656365697665720000000000006044820152606401610204565b60008181526020819052604090206005015460ff16156111a65760405162461bcd60e51b815260206004820152601f60248201527f776974686472617761626c653a20616c72656164792077697468647261776e006044820152606401610204565b600081815260208190526040902060040154421061122c5760405162461bcd60e51b815260206004820152603160248201527f776974686472617761626c653a2074696d656c6f636b2074696d65206d75737460448201527f20626520696e20746865206675747572650000000000000000000000000000006064820152608401610204565b6000898152602081905260409020611248600682018a8a611b4d565b5060058101805460ff19166001908117909155810154600282015460405163a9059cbb60e01b81526001600160a01b0392831660048201526024810191909152889182169063a9059cbb906044016020604051808303816000875af11580156112b5573d6000803e3d6000fd5b505050506040513d601f19601f820116820180604052508101906112d99190611e5c565b506040518b907fd6fd4c8e45bf0c70693141c7ce46451b6a6a28ac8386fca2ba914044e0e2391690600090a25060019a9950505050505050505050565b6000834281116113745760405162461bcd60e51b815260206004820152602360248201527f74696d656c6f636b2074696d65206d75737420626520696e207468652066757460448201526275726560e81b6064820152608401610204565b6040516bffffffffffffffffffffffff1933606090811b8216602084015289901b16603482015260488101849052606881018790526088810186905260029060a80160408051601f19818403018152908290526113d091611e85565b602060405180830381855afa1580156113ed573d6000803e3d6000fd5b5050506040513d601f19601f820116820180604052508101906114109190611ea1565b6000818152602081905260409020549092506001600160a01b0316156114785760405162461bcd60e51b815260206004820152601760248201527f436f6e747261637420616c7265616479206578697374730000000000000000006044820152606401610204565b6000339050604051806101400160405280826001600160a01b03168152602001896001600160a01b031681526020018581526020018881526020018781526020016000151581526020016000151581526020016040518060400160405280600381526020016203078360ec1b815250815260200160006001600160a01b03168152602001866001600160a01b031681525060008085815260200190815260200160002060008201518160000160006101000a8154816001600160a01b0302191690836001600160a01b0316021790555060208201518160010160006101000a8154816001600160a01b0302191690836001600160a01b0316021790555060408201518160020155606082015181600301556080820151816004015560a08201518160050160006101000a81548160ff02191690831515021790555060c08201518160050160016101000a81548160ff02191690831515021790555060e08201518160060190805190602001906115ef929190611ac9565b5061010082015160078201805473ffffffffffffffffffffffffffffffffffffffff199081166001600160a01b039384161790915561012090930151600890920180549093169181169190911790915560408051868152602081018a905290810188905290891690339085907f329a8316ed9c3b2299597538371c2944c5026574e803b1ec31d6113e1cd67bde9060600160405180910390a4505095945050505050565b60008281526020819052604081205483906001600160a01b03166116f15760405162461bcd60e51b81526020600482015260156024820152741a1d1b18d25908191bd95cc81b9bdd08195e1a5cdd605a1b6044820152606401610204565b60008481526020819052604090205484906001600160a01b031633146117595760405162461bcd60e51b815260206004820152601660248201527f726566756e6461626c653a206e6f742073656e646572000000000000000000006044820152606401610204565b600081815260208190526040902060050154610100900460ff16156117c05760405162461bcd60e51b815260206004820152601c60248201527f726566756e6461626c653a20616c726561647920726566756e646564000000006044820152606401610204565b60008181526020819052604090206005015460ff16156118225760405162461bcd60e51b815260206004820152601d60248201527f726566756e6461626c653a20616c72656164792077697468647261776e0000006044820152606401610204565b60008181526020819052604090206004015442101561188f5760405162461bcd60e51b815260206004820152602360248201527f726566756e6461626c653a2074696d656c6f636b206e6f7420796574207061736044820152621cd95960ea1b6064820152608401610204565b6000858152602081905260409081902060058101805461ff00191661010017905580546002820154925163a9059cbb60e01b81526001600160a01b03918216600482015260248101939093529091869182169063a9059cbb906044016020604051808303816000875af115801561190a573d6000803e3d6000fd5b505050506040513d601f19601f8201168201806040525081019061192e9190611e5c565b5060405187907f989b3a845197c9aec15f8982bbb30b5da714050e662a7a287bb1a94c81e2e70e90600090a25060019695505050505050565b60008060008060008060006060611995896000908152602081905260409020546001600160a01b0316151590565b15156000036119d457505060408051808201909152600381526203078360ec1b6020820152600096508695508594508493508392508291508190611abe565b60008981526020819052604090208054600182015460028301546003840154600485015460058601546006870180546001600160a01b03978816979096169560ff8084169361010090041691908190611a2c90611eba565b80601f0160208091040260200160405190810160405280929190818152602001828054611a5890611eba565b8015611aa55780601f10611a7a57610100808354040283529160200191611aa5565b820191906000526020600020905b815481529060010190602001808311611a8857829003601f168201915b5050505050905098509850985098509850985098509850505b919395975091939597565b828054611ad590611eba565b90600052602060002090601f016020900481019282611af75760008555611b3d565b82601f10611b1057805160ff1916838001178555611b3d565b82800160010185558215611b3d579182015b82811115611b3d578251825591602001919060010190611b22565b50611b49929150611bc1565b5090565b828054611b5990611eba565b90600052602060002090601f016020900481019282611b7b5760008555611b3d565b82601f10611b945782800160ff19823516178555611b3d565b82800160010185558215611b3d579182015b82811115611b3d578235825591602001919060010190611ba6565b5b80821115611b495760008155600101611bc2565b6001600160a01b0381168114611beb57600080fd5b50565b600080600080600060a08688031215611c0657600080fd5b8535611c1181611bd6565b945060208601359350604086013592506060860135611c2f81611bd6565b949793965091946080013592915050565b60008083601f840112611c5257600080fd5b50813567ffffffffffffffff811115611c6a57600080fd5b602083019150836020828501011115611c8257600080fd5b9250929050565b600080600060408486031215611c9e57600080fd5b83359250602084013567ffffffffffffffff811115611cbc57600080fd5b611cc886828701611c40565b9497909650939450505050565b600060208284031215611ce757600080fd5b5035919050565b600080600060608486031215611d0357600080fd5b8335611d0e81611bd6565b95602085013595506040909401359392505050565b60008060008060608587031215611d3957600080fd5b84359350602085013567ffffffffffffffff811115611d5757600080fd5b611d6387828801611c40565b9094509250506040850135611d7781611bd6565b939692955090935050565b60008060408385031215611d9557600080fd5b823591506020830135611da781611bd6565b809150509250929050565b60005b83811015611dcd578181015183820152602001611db5565b83811115611ddc576000848401525b50505050565b60006101006001600160a01b03808c168452808b1660208501525088604084015287606084015286608084015285151560a084015284151560c08401528060e0840152835180828501526101209150611e418183860160208801611db2565b601f01601f1916929092019091019998505050505050505050565b600060208284031215611e6e57600080fd5b81518015158114611e7e57600080fd5b9392505050565b60008251611e97818460208701611db2565b9190910192915050565b600060208284031215611eb357600080fd5b5051919050565b600181811c90821680611ece57607f821691505b602082108103611f07577f4e487b7100000000000000000000000000000000000000000000000000000000600052602260045260246000fd5b5091905056fea2646970667358221220f70d9f40eb07915d4bca8af95a2ab1b3b24596857924cf7fadf1a82fee5c700364736f6c634300080d0033",
  "linkReferences": {},
  "deployedLinkReferences": {}
}