{
  "_format": "hh-sol-artifact-1",
  "contractName": "HashedTimelock",
  "sourceName": "contracts/HashedTimelock.sol",
  "abi": [
    {
      "anonymous": false,
      "inputs": [
        {
          "indexed": true,
          "internalType": "bytes32",
          "name": "htlcId",
          "type": "bytes32"
        },
        {
          "indexed": true,
          "internalType": "address",
          "name": "sender",
          "type": "address"
        },
        {
          "indexed": true,
          "internalType": "address",
          "name": "receiver",
          "type": "address"
        },
        {
          "indexed": false,
          "internalType": "uint256",
          "name": "amount",
          "type": "uint256"
        },
        {
          "indexed": false,
          "internalType": "bytes32",
          "name": "hashlock",
          "type": "bytes32"
        },
        {
          "indexed": false,
          "internalType": "uint256",
          "name": "timelock",
          "type": "uint256"
        }
      ],
      "name": "LogHTLCNew",
      "type": "event"
    },
    {
      "anonymous": false,
      "inputs": [
        {
          "indexed": true,
          "internalType": "bytes32",
          "name": "htlcId",
          "type": "bytes32"
        }
      ],
      "name": "LogHTLCRefund",
      "type": "event"
    },
    {
      "anonymous": false,
      "inputs": [
        {
          "indexed": true,
          "internalType": "bytes32",
          "name": "htlcId",
          "type": "bytes32"
        }
      ],
      "name": "LogHTLCWithdraw",
      "type": "event"
    },
    {
      "constant": true,
      "inputs": [
        {
          "internalType": "bytes32",
          "name": "_htlcId",
          "type": "bytes32"
        }
      ],
      "name": "getContract",
      "outputs": [
        {
          "internalType": "address",
          "name": "sender",
          "type": "address"
        },
        {
          "internalType": "address",
          "name": "receiver",
          "type": "address"
        },
        {
          "internalType": "uint256",
          "name": "amount",
          "type": "uint256"
        },
        {
          "internalType": "bytes32",
          "name": "hashlock",
          "type": "bytes32"
        },
        {
          "internalType": "uint256",
          "name": "timelock",
          "type": "uint256"
        },
        {
          "internalType": "bool",
          "name": "withdrawn",
          "type": "bool"
        },
        {
          "internalType": "bool",
          "name": "refunded",
          "type": "bool"
        },
        {
          "internalType": "bytes",
          "name": "preimage",
          "type": "bytes"
        }
      ],
      "payable": false,
      "stateMutability": "view",
      "type": "function"
    },
    {
      "constant": false,
      "inputs": [
        {
          "internalType": "address payable",
          "name": "_receiver",
          "type": "address"
        },
        {
          "internalType": "bytes32",
          "name": "_hashlock",
          "type": "bytes32"
        },
        {
          "internalType": "uint256",
          "name": "_timelock",
          "type": "uint256"
        }
      ],
      "name": "newHTLC",
      "outputs": [
        {
          "internalType": "bytes32",
          "name": "htlcId",
          "type": "bytes32"
        }
      ],
      "payable": true,
      "stateMutability": "payable",
      "type": "function"
    },
    {
      "constant": false,
      "inputs": [
        {
          "internalType": "bytes32",
          "name": "_htlcId",
          "type": "bytes32"
        }
      ],
      "name": "refund",
      "outputs": [
        {
          "internalType": "bool",
          "name": "",
          "type": "bool"
        }
      ],
      "payable": false,
      "stateMutability": "nonpayable",
      "type": "function"
    },
    {
      "constant": false,
      "inputs": [
        {
          "internalType": "bytes32",
          "name": "_htlcId",
          "type": "bytes32"
        },
        {
          "internalType": "bytes",
          "name": "_preimage",
          "type": "bytes"
        }
      ],
      "name": "withdraw",
      "outputs": [
        {
          "internalType": "bool",
          "name": "",
          "type": "bool"
        }
      ],
      "payable": false,
      "stateMutability": "nonpayable",
      "type": "function"
    }
  ],
  "bytecode": "0x608060405234801561001057600080fd5b50610ecc806100206000396000f3fe60806040526004361061003f5760003560e01c80634a2e35ba146100445780637249fbb6146100dc5780637b3a406d14610106578063e16c7d981461014a575b600080fd5b34801561005057600080fd5b506100c86004803603604081101561006757600080fd5b8135919081019060408101602082013564010000000081111561008957600080fd5b82018360208201111561009b57600080fd5b803590602001918460018302840111640100000000831117156100bd57600080fd5b509092509050610249565b604080519115158252519081900360200190f35b3480156100e857600080fd5b506100c8600480360360208110156100ff57600080fd5b5035610601565b6101386004803603606081101561011c57600080fd5b506001600160a01b038135169060208101359060400135610882565b60408051918252519081900360200190f35b34801561015657600080fd5b506101746004803603602081101561016d57600080fd5b5035610bae565b60405180896001600160a01b03166001600160a01b03168152602001886001600160a01b03166001600160a01b03168152602001878152602001868152602001858152602001841515151581526020018315151515815260200180602001828103825283818151815260200191508051906020019080838360005b838110156102075781810151838201526020016101ef565b50505050905090810190601f1680156102345780820380516001836020036101000a031916815260200191505b50995050505050505050505060405180910390f35b60008361025581610cfa565b6102a6576040805162461bcd60e51b815260206004820152601560248201527f68746c63496420646f6573206e6f742065786973740000000000000000000000604482015290519081900360640190fd5b8484848080601f016020809104026020016040519081016040528093929190818152602001838380828437600092019190915250506040518351600293508492506020918201918291908401908083835b602083106103165780518252601f1990920191602091820191016102f7565b6001836020036101000a0380198251168184511680821785525050505050509050019150506040516020818303038152906040526040518082805190602001908083835b602083106103795780518252601f19909201916020918201910161035a565b51815160209384036101000a60001901801990921691161790526040519190930194509192505080830381855afa1580156103b8573d6000803e3d6000fd5b5050506040513d60208110156103cd57600080fd5b505160008381526020819052604090206003015414610433576040805162461bcd60e51b815260206004820152601c60248201527f686173686c6f636b206861736820646f6573206e6f74206d6174636800000000604482015290519081900360640190fd5b60008781526020819052604090206001015487906001600160a01b031633146104a3576040805162461bcd60e51b815260206004820152601a60248201527f776974686472617761626c653a206e6f74207265636569766572000000000000604482015290519081900360640190fd5b60008181526020819052604090206005015460ff161561050a576040805162461bcd60e51b815260206004820152601f60248201527f776974686472617761626c653a20616c72656164792077697468647261776e00604482015290519081900360640190fd5b60008181526020819052604090206004015442106105595760405162461bcd60e51b8152600401808060200182810382526031815260200180610e676031913960400191505060405180910390fd5b6000888152602081905260409020610575600682018989610d17565b5060058101805460ff1916600190811790915581015460028201546040516001600160a01b039092169181156108fc0291906000818181858888f193505050501580156105c6573d6000803e3d6000fd5b5060405189907fd6fd4c8e45bf0c70693141c7ce46451b6a6a28ac8386fca2ba914044e0e2391690600090a250600198975050505050505050565b60008161060d81610cfa565b61065e576040805162461bcd60e51b815260206004820152601560248201527f68746c63496420646f6573206e6f742065786973740000000000000000000000604482015290519081900360640190fd5b60008381526020819052604090205483906001600160a01b031633146106cb576040805162461bcd60e51b815260206004820152601660248201527f726566756e6461626c653a206e6f742073656e64657200000000000000000000604482015290519081900360640190fd5b600081815260208190526040902060050154610100900460ff1615610737576040805162461bcd60e51b815260206004820152601c60248201527f726566756e6461626c653a20616c726561647920726566756e64656400000000604482015290519081900360640190fd5b60008181526020819052604090206005015460ff161561079e576040805162461bcd60e51b815260206004820152601d60248201527f726566756e6461626c653a20616c72656164792077697468647261776e000000604482015290519081900360640190fd5b6000818152602081905260409020600401544210156107ee5760405162461bcd60e51b8152600401808060200182810382526023815260200180610e446023913960400191505060405180910390fd5b60008481526020819052604080822060058101805461ff00191661010017905580546002820154925191936001600160a01b039091169280156108fc02929091818181858888f1935050505015801561084b573d6000803e3d6000fd5b5060405185907f989b3a845197c9aec15f8982bbb30b5da714050e662a7a287bb1a94c81e2e70e90600090a2506001949350505050565b60008034116108d8576040805162461bcd60e51b815260206004820152601560248201527f6d73672e76616c7565206d757374206265203e20300000000000000000000000604482015290519081900360640190fd5b814281116109175760405162461bcd60e51b8152600401808060200182810382526023815260200180610e216023913960400191505060405180910390fd5b6040805133606090811b6020808401919091529088901b6bffffffffffffffffffffffff191660348301523460488301526068820187905260888083018790528351808403909101815260a8909201928390528151600293918291908401908083835b602083106109995780518252601f19909201916020918201910161097a565b51815160209384036101000a60001901801990921691161790526040519190930194509192505080830381855afa1580156109d8573d6000803e3d6000fd5b5050506040513d60208110156109ed57600080fd5b505191506109fa82610cfa565b15610a4c576040805162461bcd60e51b815260206004820152601760248201527f436f6e747261637420616c726561647920657869737473000000000000000000604482015290519081900360640190fd5b6040805161010080820183523382526001600160a01b03888116602080850191825234858701908152606086018b8152608087018b8152600060a0890181815260c08a018281528b51808d018d5260038082526203078360ec1b828a015260e08d019182528f85528489529c9093208b518154908b167fffffffffffffffffffffffff0000000000000000000000000000000000000000918216178255985160018201805491909b169916989098179098559351600287015591519885019890985596516004840155516005830180549451151590950261ff001991151560ff199095169490941716929092179092559251805192939192610b549260068501920190610d95565b5050604080513481526020810187905280820186905290516001600160a01b0388169250339185917f329a8316ed9c3b2299597538371c2944c5026574e803b1ec31d6113e1cd67bde9181900360600190a4509392505050565b60008060008060008060006060610bc489610cfa565b610bfe57505060408051808201909152600381526203078360ec1b6020820152600096508695508594508493508392508291508190610cef565b6000898152602081815260409182902080546001808301546002808501546003860154600487015460058801546006890180548c51610100998216158a026000190190911696909604601f81018c90048c0287018c01909c528b8652989a6001600160a01b039889169a989096169893979296919560ff80831696939092049091169392839190830182828015610cd65780601f10610cab57610100808354040283529160200191610cd6565b820191906000526020600020905b815481529060010190602001808311610cb957829003601f168201915b5050505050905098509850985098509850985098509850505b919395975091939597565b6000908152602081905260409020546001600160a01b0316151590565b828054600181600116156101000203166002900490600052602060002090601f016020900481019282601f10610d585782800160ff19823516178555610d85565b82800160010185558215610d85579182015b82811115610d85578235825591602001919060010190610d6a565b50610d91929150610e03565b5090565b828054600181600116156101000203166002900490600052602060002090601f016020900481019282601f10610dd657805160ff1916838001178555610d85565b82800160010185558215610d85579182015b82811115610d85578251825591602001919060010190610de8565b610e1d91905b80821115610d915760008155600101610e09565b9056fe74696d656c6f636b2074696d65206d75737420626520696e2074686520667574757265726566756e6461626c653a2074696d656c6f636b206e6f742079657420706173736564776974686472617761626c653a2074696d656c6f636b2074696d65206d75737420626520696e2074686520667574757265a265627a7a72315820ba485b33101b209d6c69b6e3e54e2c488af8d887c0a3213e498a5c4046ad18cd64736f6c63430005110032",
  "linkReferences": {},
  "deployedLinkReferences": {}
}