{
  "_format": "hh-sol-artifact-1",
  "contractName": "MyNft",
  "sourceName": "contracts/MyNft.sol",
  "abi": [
    {
      "inputs": [],
      "stateMutability": "nonpayable",
      "type": "constructor"
    },
    {
      "anonymous": false,
      "inputs": [
        {
          "indexed": true,
          "internalType": "address",
          "name": "owner",
          "type": "address"
        },
        {
          "indexed": true,
          "internalType": "address",
          "name": "approved",
          "type": "address"
        },
        {
          "indexed": true,
          "internalType": "uint256",
          "name": "tokenId",
          "type": "uint256"
        }
      ],
      "name": "Approval",
      "type": "event"
    },
    {
      "anonymous": false,
      "inputs": [
        {
          "indexed": true,
          "internalType": "address",
          "name": "owner",
          "type": "address"
        },
        {
          "indexed": true,
          "internalType": "address",
          "name": "operator",
          "type": "address"
        },
        {
          "indexed": false,
          "internalType": "bool",
          "name": "approved",
          "type": "bool"
        }
      ],
      "name": "ApprovalForAll",
      "type": "event"
    },
    {
      "anonymous": false,
      "inputs": [
        {
          "indexed": false,
          "internalType": "address",
          "name": "account",
          "type": "address"
        }
      ],
      "name": "Paused",
      "type": "event"
    },
    {
      "anonymous": false,
      "inputs": [
        {
          "indexed": true,
          "internalType": "bytes32",
          "name": "role",
          "type": "bytes32"
        },
        {
          "indexed": true,
          "internalType": "bytes32",
          "name": "previousAdminRole",
          "type": "bytes32"
        },
        {
          "indexed": true,
          "internalType": "bytes32",
          "name": "newAdminRole",
          "type": "bytes32"
        }
      ],
      "name": "RoleAdminChanged",
      "type": "event"
    },
    {
      "anonymous": false,
      "inputs": [
        {
          "indexed": true,
          "internalType": "bytes32",
          "name": "role",
          "type": "bytes32"
        },
        {
          "indexed": true,
          "internalType": "address",
          "name": "account",
          "type": "address"
        },
        {
          "indexed": true,
          "internalType": "address",
          "name": "sender",
          "type": "address"
        }
      ],
      "name": "RoleGranted",
      "type": "event"
    },
    {
      "anonymous": false,
      "inputs": [
        {
          "indexed": true,
          "internalType": "bytes32",
          "name": "role",
          "type": "bytes32"
        },
        {
          "indexed": true,
          "internalType": "address",
          "name": "account",
          "type": "address"
        },
        {
          "indexed": true,
          "internalType": "address",
          "name": "sender",
          "type": "address"
        }
      ],
      "name": "RoleRevoked",
      "type": "event"
    },
    {
      "anonymous": false,
      "inputs": [
        {
          "indexed": true,
          "internalType": "address",
          "name": "from",
          "type": "address"
        },
        {
          "indexed": true,
          "internalType": "address",
          "name": "to",
          "type": "address"
        },
        {
          "indexed": true,
          "internalType": "uint256",
          "name": "tokenId",
          "type": "uint256"
        }
      ],
      "name": "Transfer",
      "type": "event"
    },
    {
      "anonymous": false,
      "inputs": [
        {
          "indexed": false,
          "internalType": "address",
          "name": "account",
          "type": "address"
        }
      ],
      "name": "Unpaused",
      "type": "event"
    },
    {
      "inputs": [],
      "name": "DEFAULT_ADMIN_ROLE",
      "outputs": [
        {
          "internalType": "bytes32",
          "name": "",
          "type": "bytes32"
        }
      ],
      "stateMutability": "view",
      "type": "function"
    },
    {
      "inputs": [],
      "name": "MINTER_ROLE",
      "outputs": [
        {
          "internalType": "bytes32",
          "name": "",
          "type": "bytes32"
        }
      ],
      "stateMutability": "view",
      "type": "function"
    },
    {
      "inputs": [],
      "name": "PAUSER_ROLE",
      "outputs": [
        {
          "internalType": "bytes32",
          "name": "",
          "type": "bytes32"
        }
      ],
      "stateMutability": "view",
      "type": "function"
    },
    {
      "inputs": [
        {
          "internalType": "address",
          "name": "to",
          "type": "address"
        },
        {
          "internalType": "uint256",
          "name": "tokenId",
          "type": "uint256"
        }
      ],
      "name": "approve",
      "outputs": [],
      "stateMutability": "nonpayable",
      "type": "function"
    },
    {
      "inputs": [
        {
          "internalType": "address",
          "name": "owner",
          "type": "address"
        }
      ],
      "name": "balanceOf",
      "outputs": [
        {
          "internalType": "uint256",
          "name": "",
          "type": "uint256"
        }
      ],
      "stateMutability": "view",
      "type": "function"
    },
    {
      "inputs": [
        {
          "internalType": "uint256",
          "name": "tokenId",
          "type": "uint256"
        }
      ],
      "name": "burn",
      "outputs": [],
      "stateMutability": "nonpayable",
      "type": "function"
    },
    {
      "inputs": [
        {
          "internalType": "uint256",
          "name": "tokenId",
          "type": "uint256"
        }
      ],
      "name": "getApproved",
      "outputs": [
        {
          "internalType": "address",
          "name": "",
          "type": "address"
        }
      ],
      "stateMutability": "view",
      "type": "function"
    },
    {
      "inputs": [
        {
          "internalType": "bytes32",
          "name": "role",
          "type": "bytes32"
        }
      ],
      "name": "getRoleAdmin",
      "outputs": [
        {
          "internalType": "bytes32",
          "name": "",
          "type": "bytes32"
        }
      ],
      "stateMutability": "view",
      "type": "function"
    },
    {
      "inputs": [
        {
          "internalType": "bytes32",
          "name": "role",
          "type": "bytes32"
        },
        {
          "internalType": "uint256",
          "name": "index",
          "type": "uint256"
        }
      ],
      "name": "getRoleMember",
      "outputs": [
        {
          "internalType": "address",
          "name": "",
          "type": "address"
        }
      ],
      "stateMutability": "view",
      "type": "function"
    },
    {
      "inputs": [
        {
          "internalType": "bytes32",
          "name": "role",
          "type": "bytes32"
        }
      ],
      "name": "getRoleMemberCount",
      "outputs": [
        {
          "internalType": "uint256",
          "name": "",
          "type": "uint256"
        }
      ],
      "stateMutability": "view",
      "type": "function"
    },
    {
      "inputs": [
        {
          "internalType": "bytes32",
          "name": "role",
          "type": "bytes32"
        },
        {
          "internalType": "address",
          "name": "account",
          "type": "address"
        }
      ],
      "name": "grantRole",
      "outputs": [],
      "stateMutability": "nonpayable",
      "type": "function"
    },
    {
      "inputs": [
        {
          "internalType": "bytes32",
          "name": "role",
          "type": "bytes32"
        },
        {
          "internalType": "address",
          "name": "account",
          "type": "address"
        }
      ],
      "name": "hasRole",
      "outputs": [
        {
          "internalType": "bool",
          "name": "",
          "type": "bool"
        }
      ],
      "stateMutability": "view",
      "type": "function"
    },
    {
      "inputs": [
        {
          "internalType": "address",
          "name": "owner",
          "type": "address"
        },
        {
          "internalType": "address",
          "name": "operator",
          "type": "address"
        }
      ],
      "name": "isApprovedForAll",
      "outputs": [
        {
          "internalType": "bool",
          "name": "",
          "type": "bool"
        }
      ],
      "stateMutability": "view",
      "type": "function"
    },
    {
      "inputs": [
        {
          "internalType": "address",
          "name": "to",
          "type": "address"
        }
      ],
      "name": "mint",
      "outputs": [],
      "stateMutability": "nonpayable",
      "type": "function"
    },
    {
      "inputs": [],
      "name": "name",
      "outputs": [
        {
          "internalType": "string",
          "name": "",
          "type": "string"
        }
      ],
      "stateMutability": "view",
      "type": "function"
    },
    {
      "inputs": [
        {
          "internalType": "uint256",
          "name": "tokenId",
          "type": "uint256"
        }
      ],
      "name": "ownerOf",
      "outputs": [
        {
          "internalType": "address",
          "name": "",
          "type": "address"
        }
      ],
      "stateMutability": "view",
      "type": "function"
    },
    {
      "inputs": [],
      "name": "pause",
      "outputs": [],
      "stateMutability": "nonpayable",
      "type": "function"
    },
    {
      "inputs": [],
      "name": "paused",
      "outputs": [
        {
          "internalType": "bool",
          "name": "",
          "type": "bool"
        }
      ],
      "stateMutability": "view",
      "type": "function"
    },
    {
      "inputs": [
        {
          "internalType": "bytes32",
          "name": "role",
          "type": "bytes32"
        },
        {
          "internalType": "address",
          "name": "account",
          "type": "address"
        }
      ],
      "name": "renounceRole",
      "outputs": [],
      "stateMutability": "nonpayable",
      "type": "function"
    },
    {
      "inputs": [
        {
          "internalType": "bytes32",
          "name": "role",
          "type": "bytes32"
        },
        {
          "internalType": "address",
          "name": "account",
          "type": "address"
        }
      ],
      "name": "revokeRole",
      "outputs": [],
      "stateMutability": "nonpayable",
      "type": "function"
    },
    {
      "inputs": [
        {
          "internalType": "address",
          "name": "from",
          "type": "address"
        },
        {
          "internalType": "address",
          "name": "to",
          "type": "address"
        },
        {
          "internalType": "uint256",
          "name": "tokenId",
          "type": "uint256"
        }
      ],
      "name": "safeTransferFrom",
      "outputs": [],
      "stateMutability": "nonpayable",
      "type": "function"
    },
    {
      "inputs": [
        {
          "internalType": "address",
          "name": "from",
          "type": "address"
        },
        {
          "internalType": "address",
          "name": "to",
          "type": "address"
        },
        {
          "internalType": "uint256",
          "name": "tokenId",
          "type": "uint256"
        },
        {
          "internalType": "bytes",
          "name": "data",
          "type": "bytes"
        }
      ],
      "name": "safeTransferFrom",
      "outputs": [],
      "stateMutability": "nonpayable",
      "type": "function"
    },
    {
      "inputs": [
        {
          "internalType": "address",
          "name": "operator",
          "type": "address"
        },
        {
          "internalType": "bool",
          "name": "approved",
          "type": "bool"
        }
      ],
      "name": "setApprovalForAll",
      "outputs": [],
      "stateMutability": "nonpayable",
      "type": "function"
    },
    {
      "inputs": [
        {
          "internalType": "uint256",
          "name": "tokenId",
          "type": "uint256"
        },
        {
          "internalType": "string",
          "name": "tokenURI",
          "type": "string"
        }
      ],
      "name": "setTokenURI",
      "outputs": [],
      "stateMutability": "nonpayable",
      "type": "function"
    },
    {
      "inputs": [
        {
          "internalType": "bytes4",
          "name": "interfaceId",
          "type": "bytes4"
        }
      ],
      "name": "supportsInterface",
      "outputs": [
        {
          "internalType": "bool",
          "name": "",
          "type": "bool"
        }
      ],
      "stateMutability": "view",
      "type": "function"
    },
    {
      "inputs": [],
      "name": "symbol",
      "outputs": [
        {
          "internalType": "string",
          "name": "",
          "type": "string"
        }
      ],
      "stateMutability": "view",
      "type": "function"
    },
    {
      "inputs": [
        {
          "internalType": "uint256",
          "name": "index",
          "type": "uint256"
        }
      ],
      "name": "tokenByIndex",
      "outputs": [
        {
          "internalType": "uint256",
          "name": "",
          "type": "uint256"
        }
      ],
      "stateMutability": "view",
      "type": "function"
    },
    {
      "inputs": [
        {
          "internalType": "address",
          "name": "owner",
          "type": "address"
        },
        {
          "internalType": "uint256",
          "name": "index",
          "type": "uint256"
        }
      ],
      "name": "tokenOfOwnerByIndex",
      "outputs": [
        {
          "internalType": "uint256",
          "name": "",
          "type": "uint256"
        }
      ],
      "stateMutability": "view",
      "type": "function"
    },
    {
      "inputs": [
        {
          "internalType": "uint256",
          "name": "tokenId",
          "type": "uint256"
        }
      ],
      "name": "tokenURI",
      "outputs": [
        {
          "internalType": "string",
          "name": "",
          "type": "string"
        }
      ],
      "stateMutability": "view",
      "type": "function"
    },
    {
      "inputs": [],
      "name": "totalSupply",
      "outputs": [
        {
          "internalType": "uint256",
          "name": "",
          "type": "uint256"
        }
      ],
      "stateMutability": "view",
      "type": "function"
    },
    {
      "inputs": [
        {
          "internalType": "address",
          "name": "from",
          "type": "address"
        },
        {
          "internalType": "address",
          "name": "to",
          "type": "address"
        },
        {
          "internalType": "uint256",
          "name": "tokenId",
          "type": "uint256"
        }
      ],
      "name": "transferFrom",
      "outputs": [],
      "stateMutability": "nonpayable",
      "type": "function"
    },
    {
      "inputs": [],
      "name": "unpause",
      "outputs": [],
      "stateMutability": "nonpayable",
      "type": "function"
    }
  ],
  "bytecode": "0x60806040523480156200001157600080fd5b5060405180604001604052806009815260200168119c985b9ac810d85d60ba1b815250604051806040016040528060048152602001631190d05560e21b8152506040518060400160405280601b81526020017f68747470733a2f2f7777772e6672616e6b2e686b2f746f6b656e2f000000000081525082828160029080519060200190620000a1929190620002ad565b508051620000b7906003906020840190620002ad565b5050600c805460ff19169055508051620000d990600e906020840190620002ad565b50620000e760003362000148565b620001137f9f2df0fed2c77648de5860a4cc508cd0818c85b8b8a1ab4ceeef8d981c8956a63362000148565b6200013f7f65d7a28e3265b37a6474929f336521b332c1681b933f6cb9f3376673440d862a3362000148565b5050506200038f565b62000154828262000158565b5050565b6200016f82826200019b60201b62000ee61760201c565b60008281526001602090815260409091206200019691839062000f846200023b821b17901c565b505050565b6000828152602081815260408083206001600160a01b038516845290915290205460ff1662000154576000828152602081815260408083206001600160a01b03851684529091529020805460ff19166001179055620001f73390565b6001600160a01b0316816001600160a01b0316837f2f8788117e7eff1d82e926ec794901d17c78024a50270940304540a733656f0d60405160405180910390a45050565b600062000252836001600160a01b0384166200025b565b90505b92915050565b6000818152600183016020526040812054620002a45750815460018181018455600084815260208082209093018490558454848252828601909352604090209190915562000255565b50600062000255565b828054620002bb9062000353565b90600052602060002090601f016020900481019282620002df57600085556200032a565b82601f10620002fa57805160ff19168380011785556200032a565b828001600101855582156200032a579182015b828111156200032a5782518255916020019190600101906200030d565b50620003389291506200033c565b5090565b5b808211156200033857600081556001016200033d565b600181811c908216806200036857607f821691505b6020821081036200038957634e487b7160e01b600052602260045260246000fd5b50919050565b612892806200039f6000396000f3fe608060405234801561001057600080fd5b50600436106101f05760003560e01c80636352211e1161010f578063a22cb465116100a2578063d539139311610071578063d539139314610439578063d547741f14610460578063e63ab1e914610473578063e985e9c51461049a57600080fd5b8063a22cb465146103ed578063b88d4fde14610400578063c87b56dd14610413578063ca15c8731461042657600080fd5b80639010d07c116100de5780639010d07c1461039357806391d14854146103a657806395d89b41146103dd578063a217fddf146103e557600080fd5b80636352211e146103525780636a6278421461036557806370a08231146103785780638456cb591461038b57600080fd5b80632f2ff15d1161018757806342842e0e1161015657806342842e0e1461030e57806342966c68146103215780634f6ccce7146103345780635c975abb1461034757600080fd5b80632f2ff15d146102cd5780632f745c59146102e057806336568abe146102f35780633f4ba83a1461030657600080fd5b8063162094c4116101c3578063162094c41461027257806318160ddd1461028557806323b872dd14610297578063248a9ca3146102aa57600080fd5b806301ffc9a7146101f557806306fdde031461021d578063081812fc14610232578063095ea7b31461025d575b600080fd5b6102086102033660046122c6565b6104d6565b60405190151581526020015b60405180910390f35b6102256104e7565b604051610214919061233b565b61024561024036600461234e565b610579565b6040516001600160a01b039091168152602001610214565b61027061026b366004612383565b6105a0565b005b610270610280366004612439565b6106d6565b600a545b604051908152602001610214565b6102706102a5366004612494565b610780565b6102896102b836600461234e565b60009081526020819052604090206001015490565b6102706102db3660046124d0565b6107f9565b6102896102ee366004612383565b61081e565b6102706103013660046124d0565b6108c6565b61027061094e565b61027061031c366004612494565b6109f6565b61027061032f36600461234e565b610a11565b61028961034236600461234e565b610a89565b600c5460ff16610208565b61024561036036600461234e565b610b2d565b6102706103733660046124fc565b610b92565b6102896103863660046124fc565b610c4e565b610270610ce8565b6102456103a1366004612517565b610d8c565b6102086103b43660046124d0565b6000918252602082815260408084206001600160a01b0393909316845291905290205460ff1690565b610225610dab565b610289600081565b6102706103fb366004612539565b610dba565b61027061040e366004612575565b610dc5565b61022561042136600461234e565b610e44565b61028961043436600461234e565b610eaa565b6102897f9f2df0fed2c77648de5860a4cc508cd0818c85b8b8a1ab4ceeef8d981c8956a681565b61027061046e3660046124d0565b610ec1565b6102897f65d7a28e3265b37a6474929f336521b332c1681b933f6cb9f3376673440d862a81565b6102086104a83660046125f1565b6001600160a01b03918216600090815260076020908152604080832093909416825291909152205460ff1690565b60006104e182610f99565b92915050565b6060600280546104f69061261b565b80601f01602080910402602001604051908101604052809291908181526020018280546105229061261b565b801561056f5780601f106105445761010080835404028352916020019161056f565b820191906000526020600020905b81548152906001019060200180831161055257829003601f168201915b5050505050905090565b600061058482610fd7565b506000908152600660205260409020546001600160a01b031690565b60006105ab82610b2d565b9050806001600160a01b0316836001600160a01b0316036106395760405162461bcd60e51b815260206004820152602160248201527f4552433732313a20617070726f76616c20746f2063757272656e74206f776e6560448201527f720000000000000000000000000000000000000000000000000000000000000060648201526084015b60405180910390fd5b336001600160a01b0382161480610655575061065581336104a8565b6106c75760405162461bcd60e51b815260206004820152603e60248201527f4552433732313a20617070726f76652063616c6c6572206973206e6f7420746f60448201527f6b656e206f776e6572206e6f7220617070726f76656420666f7220616c6c00006064820152608401610630565b6106d1838361103b565b505050565b6107007f9f2df0fed2c77648de5860a4cc508cd0818c85b8b8a1ab4ceeef8d981c8956a6336103b4565b6107725760405162461bcd60e51b815260206004820152603260248201527f7765623320434c493a206d7573742068617665206d696e74657220726f6c652060448201527f746f2075706461746520746f6b656e55524900000000000000000000000000006064820152608401610630565b61077c82826106d6565b5050565b61078b335b826110b6565b6107ee5760405162461bcd60e51b815260206004820152602e60248201527f4552433732313a2063616c6c6572206973206e6f7420746f6b656e206f776e6560448201526d1c881b9bdc88185c1c1c9bdd995960921b6064820152608401610630565b6106d1838383611135565b6000828152602081905260409020600101546108148161131a565b6106d18383611324565b600061082983610c4e565b821061089d5760405162461bcd60e51b815260206004820152602b60248201527f455243373231456e756d657261626c653a206f776e657220696e646578206f7560448201527f74206f6620626f756e64730000000000000000000000000000000000000000006064820152608401610630565b506001600160a01b03919091166000908152600860209081526040808320938352929052205490565b6001600160a01b03811633146109445760405162461bcd60e51b815260206004820152602f60248201527f416363657373436f6e74726f6c3a2063616e206f6e6c792072656e6f756e636560448201527f20726f6c657320666f722073656c6600000000000000000000000000000000006064820152608401610630565b61077c8282611346565b6109787f65d7a28e3265b37a6474929f336521b332c1681b933f6cb9f3376673440d862a336103b4565b6109ec576040805162461bcd60e51b81526020600482015260248101919091527f4552433732315072657365744d696e7465725061757365724175746f49643a2060448201527f6d75737420686176652070617573657220726f6c6520746f20756e70617573656064820152608401610630565b6109f4611368565b565b6106d183838360405180602001604052806000815250610dc5565b610a1a33610785565b610a7d5760405162461bcd60e51b815260206004820152602e60248201527f4552433732313a2063616c6c6572206973206e6f7420746f6b656e206f776e6560448201526d1c881b9bdc88185c1c1c9bdd995960921b6064820152608401610630565b610a86816113ba565b50565b6000610a94600a5490565b8210610b085760405162461bcd60e51b815260206004820152602c60248201527f455243373231456e756d657261626c653a20676c6f62616c20696e646578206f60448201527f7574206f6620626f756e647300000000000000000000000000000000000000006064820152608401610630565b600a8281548110610b1b57610b1b612655565b90600052602060002001549050919050565b6000818152600460205260408120546001600160a01b0316806104e15760405162461bcd60e51b815260206004820152601860248201527f4552433732313a20696e76616c696420746f6b656e20494400000000000000006044820152606401610630565b610bbc7f9f2df0fed2c77648de5860a4cc508cd0818c85b8b8a1ab4ceeef8d981c8956a6336103b4565b610c2e5760405162461bcd60e51b815260206004820152603d60248201527f4552433732315072657365744d696e7465725061757365724175746f49643a2060448201527f6d7573742068617665206d696e74657220726f6c6520746f206d696e740000006064820152608401610630565b610c4081610c3b600d5490565b61146e565b610a86600d80546001019055565b60006001600160a01b038216610ccc5760405162461bcd60e51b815260206004820152602960248201527f4552433732313a2061646472657373207a65726f206973206e6f74206120766160448201527f6c6964206f776e657200000000000000000000000000000000000000000000006064820152608401610630565b506001600160a01b031660009081526005602052604090205490565b610d127f65d7a28e3265b37a6474929f336521b332c1681b933f6cb9f3376673440d862a336103b4565b610d845760405162461bcd60e51b815260206004820152603e60248201527f4552433732315072657365744d696e7465725061757365724175746f49643a2060448201527f6d75737420686176652070617573657220726f6c6520746f20706175736500006064820152608401610630565b6109f46115c9565b6000828152600160205260408120610da49083611606565b9392505050565b6060600380546104f69061261b565b61077c338383611612565b610dcf33836110b6565b610e325760405162461bcd60e51b815260206004820152602e60248201527f4552433732313a2063616c6c6572206973206e6f7420746f6b656e206f776e6560448201526d1c881b9bdc88185c1c1c9bdd995960921b6064820152608401610630565b610e3e848484846116e0565b50505050565b6060610e4f82610fd7565b6000610e59611769565b90506000815111610e795760405180602001604052806000815250610da4565b80610e8384611778565b604051602001610e9492919061266b565b6040516020818303038152906040529392505050565b60008181526001602052604081206104e190611879565b600082815260208190526040902060010154610edc8161131a565b6106d18383611346565b6000828152602081815260408083206001600160a01b038516845290915290205460ff1661077c576000828152602081815260408083206001600160a01b03851684529091529020805460ff19166001179055610f403390565b6001600160a01b0316816001600160a01b0316837f2f8788117e7eff1d82e926ec794901d17c78024a50270940304540a733656f0d60405160405180910390a45050565b6000610da4836001600160a01b038416611883565b60006001600160e01b031982167f780e9d630000000000000000000000000000000000000000000000000000000014806104e157506104e1826118d2565b6000818152600460205260409020546001600160a01b0316610a865760405162461bcd60e51b815260206004820152601860248201527f4552433732313a20696e76616c696420746f6b656e20494400000000000000006044820152606401610630565b6000818152600660205260409020805473ffffffffffffffffffffffffffffffffffffffff19166001600160a01b038416908117909155819061107d82610b2d565b6001600160a01b03167f8c5be1e5ebec7d5bd14f71427d1e84f3dd0314c0f7b2291e5b200ac8c7c3b92560405160405180910390a45050565b6000806110c283610b2d565b9050806001600160a01b0316846001600160a01b0316148061110957506001600160a01b0380821660009081526007602090815260408083209388168352929052205460ff165b8061112d5750836001600160a01b031661112284610579565b6001600160a01b0316145b949350505050565b826001600160a01b031661114882610b2d565b6001600160a01b0316146111c45760405162461bcd60e51b815260206004820152602560248201527f4552433732313a207472616e736665722066726f6d20696e636f72726563742060448201527f6f776e65720000000000000000000000000000000000000000000000000000006064820152608401610630565b6001600160a01b03821661123f5760405162461bcd60e51b8152602060048201526024808201527f4552433732313a207472616e7366657220746f20746865207a65726f2061646460448201527f72657373000000000000000000000000000000000000000000000000000000006064820152608401610630565b61124a838383611944565b61125560008261103b565b6001600160a01b038316600090815260056020526040812080546001929061127e9084906126b0565b90915550506001600160a01b03821660009081526005602052604081208054600192906112ac9084906126c7565b9091555050600081815260046020526040808220805473ffffffffffffffffffffffffffffffffffffffff19166001600160a01b0386811691821790925591518493918716917fddf252ad1be2c89b69c2b068fc378daa952ba7f163c4a11628f55a4df523b3ef91a4505050565b610a86813361194f565b61132e8282610ee6565b60008281526001602052604090206106d19082610f84565b61135082826119cd565b60008281526001602052604090206106d19082611a4c565b611370611a61565b600c805460ff191690557f5db9ee0a495bf2e6ff9c91a7834c1ba4fdd244a5e8aa4e537bd38aeae4b073aa335b6040516001600160a01b03909116815260200160405180910390a1565b60006113c582610b2d565b90506113d381600084611944565b6113de60008361103b565b6001600160a01b03811660009081526005602052604081208054600192906114079084906126b0565b9091555050600082815260046020526040808220805473ffffffffffffffffffffffffffffffffffffffff19169055518391906001600160a01b038416907fddf252ad1be2c89b69c2b068fc378daa952ba7f163c4a11628f55a4df523b3ef908390a45050565b6001600160a01b0382166114c45760405162461bcd60e51b815260206004820181905260248201527f4552433732313a206d696e7420746f20746865207a65726f20616464726573736044820152606401610630565b6000818152600460205260409020546001600160a01b0316156115295760405162461bcd60e51b815260206004820152601c60248201527f4552433732313a20746f6b656e20616c7265616479206d696e746564000000006044820152606401610630565b61153560008383611944565b6001600160a01b038216600090815260056020526040812080546001929061155e9084906126c7565b9091555050600081815260046020526040808220805473ffffffffffffffffffffffffffffffffffffffff19166001600160a01b03861690811790915590518392907fddf252ad1be2c89b69c2b068fc378daa952ba7f163c4a11628f55a4df523b3ef908290a45050565b6115d1611ab3565b600c805460ff191660011790557f62e78cea01bee320cd4e420270b5ea74000d11b0c9f74754ebdbfc544b05a25861139d3390565b6000610da48383611b06565b816001600160a01b0316836001600160a01b0316036116735760405162461bcd60e51b815260206004820152601960248201527f4552433732313a20617070726f766520746f2063616c6c6572000000000000006044820152606401610630565b6001600160a01b03838116600081815260076020908152604080832094871680845294825291829020805460ff191686151590811790915591519182527f17307eab39ab6107e8899845ad3d59bd9653f200f220920489ca2b5937696c31910160405180910390a3505050565b6116eb848484611135565b6116f784848484611b30565b610e3e5760405162461bcd60e51b815260206004820152603260248201527f4552433732313a207472616e7366657220746f206e6f6e20455243373231526560448201527f63656976657220696d706c656d656e74657200000000000000000000000000006064820152608401610630565b6060600e80546104f69061261b565b60608160000361179f5750506040805180820190915260018152600360fc1b602082015290565b8160005b81156117c957806117b3816126df565b91506117c29050600a8361270e565b91506117a3565b60008167ffffffffffffffff8111156117e4576117e46123ad565b6040519080825280601f01601f19166020018201604052801561180e576020820181803683370190505b5090505b841561112d576118236001836126b0565b9150611830600a86612722565b61183b9060306126c7565b60f81b81838151811061185057611850612655565b60200101906001600160f81b031916908160001a905350611872600a8661270e565b9450611812565b60006104e1825490565b60008181526001830160205260408120546118ca575081546001818101845560008481526020808220909301849055845484825282860190935260409020919091556104e1565b5060006104e1565b60006001600160e01b031982167f80ac58cd00000000000000000000000000000000000000000000000000000000148061193557506001600160e01b031982167f5b5e139f00000000000000000000000000000000000000000000000000000000145b806104e157506104e182611c87565b6106d1838383611cc5565b6000828152602081815260408083206001600160a01b038516845290915290205460ff1661077c5761198b816001600160a01b03166014611d49565b611996836020611d49565b6040516020016119a7929190612736565b60408051601f198184030181529082905262461bcd60e51b82526106309160040161233b565b6000828152602081815260408083206001600160a01b038516845290915290205460ff161561077c576000828152602081815260408083206001600160a01b0385168085529252808320805460ff1916905551339285917ff6391f5c32d9c69d2a47ea670b442974b53935d1edc7fd64eb21e047a839171b9190a45050565b6000610da4836001600160a01b038416611f0e565b600c5460ff166109f45760405162461bcd60e51b815260206004820152601460248201527f5061757361626c653a206e6f74207061757365640000000000000000000000006044820152606401610630565b600c5460ff16156109f45760405162461bcd60e51b815260206004820152601060248201527f5061757361626c653a20706175736564000000000000000000000000000000006044820152606401610630565b6000826000018281548110611b1d57611b1d612655565b9060005260206000200154905092915050565b60006001600160a01b0384163b15611c7c57604051630a85bd0160e11b81526001600160a01b0385169063150b7a0290611b749033908990889088906004016127b7565b6020604051808303816000875af1925050508015611baf575060408051601f3d908101601f19168201909252611bac918101906127f3565b60015b611c62573d808015611bdd576040519150601f19603f3d011682016040523d82523d6000602084013e611be2565b606091505b508051600003611c5a5760405162461bcd60e51b815260206004820152603260248201527f4552433732313a207472616e7366657220746f206e6f6e20455243373231526560448201527f63656976657220696d706c656d656e74657200000000000000000000000000006064820152608401610630565b805181602001fd5b6001600160e01b031916630a85bd0160e11b14905061112d565b506001949350505050565b60006001600160e01b031982167f5a05180f0000000000000000000000000000000000000000000000000000000014806104e157506104e182612001565b611cd0838383612068565b600c5460ff16156106d15760405162461bcd60e51b815260206004820152602b60248201527f4552433732315061757361626c653a20746f6b656e207472616e73666572207760448201527f68696c65207061757365640000000000000000000000000000000000000000006064820152608401610630565b60606000611d58836002612810565b611d639060026126c7565b67ffffffffffffffff811115611d7b57611d7b6123ad565b6040519080825280601f01601f191660200182016040528015611da5576020820181803683370190505b509050600360fc1b81600081518110611dc057611dc0612655565b60200101906001600160f81b031916908160001a9053507f780000000000000000000000000000000000000000000000000000000000000081600181518110611e0b57611e0b612655565b60200101906001600160f81b031916908160001a9053506000611e2f846002612810565b611e3a9060016126c7565b90505b6001811115611ebf577f303132333435363738396162636465660000000000000000000000000000000085600f1660108110611e7b57611e7b612655565b1a60f81b828281518110611e9157611e91612655565b60200101906001600160f81b031916908160001a90535060049490941c93611eb88161282f565b9050611e3d565b508315610da45760405162461bcd60e51b815260206004820181905260248201527f537472696e67733a20686578206c656e67746820696e73756666696369656e746044820152606401610630565b60008181526001830160205260408120548015611ff7576000611f326001836126b0565b8554909150600090611f46906001906126b0565b9050818114611fab576000866000018281548110611f6657611f66612655565b9060005260206000200154905080876000018481548110611f8957611f89612655565b6000918252602080832090910192909255918252600188019052604090208390555b8554869080611fbc57611fbc612846565b6001900381819060005260206000200160009055905585600101600086815260200190815260200160002060009055600193505050506104e1565b60009150506104e1565b60006001600160e01b031982167f7965db0b0000000000000000000000000000000000000000000000000000000014806104e157507f01ffc9a7000000000000000000000000000000000000000000000000000000006001600160e01b03198316146104e1565b6001600160a01b0383166120c3576120be81600a80546000838152600b60205260408120829055600182018355919091527fc65a7bb8d6351c1cf70c95a316cc6a92839c986682d98bc35f958f4883f9d2a80155565b6120e6565b816001600160a01b0316836001600160a01b0316146120e6576120e68382612120565b6001600160a01b0382166120fd576106d1816121bd565b826001600160a01b0316826001600160a01b0316146106d1576106d1828261226c565b6000600161212d84610c4e565b61213791906126b0565b60008381526009602052604090205490915080821461218a576001600160a01b03841660009081526008602090815260408083208584528252808320548484528184208190558352600990915290208190555b5060009182526009602090815260408084208490556001600160a01b039094168352600881528383209183525290812055565b600a546000906121cf906001906126b0565b6000838152600b6020526040812054600a80549394509092849081106121f7576121f7612655565b9060005260206000200154905080600a838154811061221857612218612655565b6000918252602080832090910192909255828152600b9091526040808220849055858252812055600a80548061225057612250612846565b6001900381819060005260206000200160009055905550505050565b600061227783610c4e565b6001600160a01b039093166000908152600860209081526040808320868452825280832085905593825260099052919091209190915550565b6001600160e01b031981168114610a8657600080fd5b6000602082840312156122d857600080fd5b8135610da4816122b0565b60005b838110156122fe5781810151838201526020016122e6565b83811115610e3e5750506000910152565b600081518084526123278160208601602086016122e3565b601f01601f19169290920160200192915050565b602081526000610da4602083018461230f565b60006020828403121561236057600080fd5b5035919050565b80356001600160a01b038116811461237e57600080fd5b919050565b6000806040838503121561239657600080fd5b61239f83612367565b946020939093013593505050565b634e487b7160e01b600052604160045260246000fd5b600067ffffffffffffffff808411156123de576123de6123ad565b604051601f8501601f19908116603f01168101908282118183101715612406576124066123ad565b8160405280935085815286868601111561241f57600080fd5b858560208301376000602087830101525050509392505050565b6000806040838503121561244c57600080fd5b82359150602083013567ffffffffffffffff81111561246a57600080fd5b8301601f8101851361247b57600080fd5b61248a858235602084016123c3565b9150509250929050565b6000806000606084860312156124a957600080fd5b6124b284612367565b92506124c060208501612367565b9150604084013590509250925092565b600080604083850312156124e357600080fd5b823591506124f360208401612367565b90509250929050565b60006020828403121561250e57600080fd5b610da482612367565b6000806040838503121561252a57600080fd5b50508035926020909101359150565b6000806040838503121561254c57600080fd5b61255583612367565b91506020830135801515811461256a57600080fd5b809150509250929050565b6000806000806080858703121561258b57600080fd5b61259485612367565b93506125a260208601612367565b925060408501359150606085013567ffffffffffffffff8111156125c557600080fd5b8501601f810187136125d657600080fd5b6125e5878235602084016123c3565b91505092959194509250565b6000806040838503121561260457600080fd5b61260d83612367565b91506124f360208401612367565b600181811c9082168061262f57607f821691505b60208210810361264f57634e487b7160e01b600052602260045260246000fd5b50919050565b634e487b7160e01b600052603260045260246000fd5b6000835161267d8184602088016122e3565b8351908301906126918183602088016122e3565b01949350505050565b634e487b7160e01b600052601160045260246000fd5b6000828210156126c2576126c261269a565b500390565b600082198211156126da576126da61269a565b500190565b6000600182016126f1576126f161269a565b5060010190565b634e487b7160e01b600052601260045260246000fd5b60008261271d5761271d6126f8565b500490565b600082612731576127316126f8565b500690565b7f416363657373436f6e74726f6c3a206163636f756e742000000000000000000081526000835161276e8160178501602088016122e3565b7f206973206d697373696e6720726f6c652000000000000000000000000000000060179184019182015283516127ab8160288401602088016122e3565b01602801949350505050565b60006001600160a01b038087168352808616602084015250836040830152608060608301526127e9608083018461230f565b9695505050505050565b60006020828403121561280557600080fd5b8151610da4816122b0565b600081600019048311821515161561282a5761282a61269a565b500290565b60008161283e5761283e61269a565b506000190190565b634e487b7160e01b600052603160045260246000fdfea2646970667358221220906e4be9efadd3ed4ef30f1ce977ea2e7d23cd226814fa66c491894be866985364736f6c634300080d0033",
  "linkReferences": {},
  "deployedLinkReferences": {}
}